:020000040000FA
:060000000210370205F6B4
:03002B00020D992A
:03003300020C3983
:030053000205257E
:1000830002058701010000000000F8FF07FFFF00E1
:10009300000504000000030001FFFFFFFF0005301F
:1000A30075000050000000800000000020FD0002E9
:1000B30006FFFF1E012100FA00961A00000000004F
:1000C3000000000000000000000104010C00020118
:1000D300CD9604E695010400006219000000E803D0
:1000E3000000FFFFB3190188130000E80300002C90
:1000F300012C01BC02A0BB0D00A0BB0D000202023B
:10010300070401051E02051E020A0A01010808016F
:1001130003B80B02803E0102FEFFE8030A0500015B
:10012300FFFF020A011401E00200000005030101C0
:100133000F03000300030003000300030003000395
:1001430000030005000A00140028004F009E000071
:1001530000D02C00000000A42B00000000FF0000D2
:1001630000FF001210656046121083603DE968705D
:1001730008F618F618F618F622748067F712019A33
:10018300090909748067F722121083601D12106534
:100193007005191919801A120F12701F120F3AC322
:1001A3007003E6673319191940071818182208084D
:1001B3000874FFF618F618F618F622120F3A6017AD
:1001C300121103702192F01210F17019501720F0E0
:1001D30014080808090909E7F61819E7F61819E7D2
:1001E300F61819E7F6221210F160E6E869701F08A5
:1001F30008E62480F608E436F618547FB47F0CE64C
:1002030054806007F6E418F618F622181822E9C697
:10021300CC08C6CD08C6CE08C6CFC0E0E8C0E0EA29
:10022300C0E0EBC0E009E9F809E7FA09E7FBE6F902
:1002330018E6F8C3EC98ED99EE9AEBC2E7F5F0EF08
:10024300C2E795F0500E600CEBCFFBEACEFAE9CD96
:10025300F9E8CCF8EAA2E7D2E7FAEB33FB13F5F0BF
:10026300EEA2E7D2E7FEEF33FFC5F013A2E730E6D5
:1002730001B313C5F0C3C0E0C0F07F00C39BFB60B4
:100283005E9418600F401D14601AD0E023F9D0E08B
:10029300F802036C8AF0E9486003D2F0E4AFF0FAA5
:1002A300F9F8803BEB30E40D89F0EA6003D2F0E427
:1002B300AFF0F9CAF8EB30E30D88F0EF6002D2F04B
:1002C300AFF0E4CAC9F8EB54076014FBC3EA13FAAE
:1002D300E913F9E813F8EF135002D2E0FFDBEDD096
:1002E300E0C0E030E739C3E49FFFF5F0EC98FC424F
:1002F300F0ED99FD42F0EE9AFE42F0D0E0F9D0E045
:10030300F8E5F0607AE923F9EE20E742D802806746
:10031300C3EF33FFEC33FCED33FDEE33FE80EAEC49
:1003230028FCED39FDEE3AFED0E023F9D0E0F840A9
:1003330002801BC3EE13FEED13FDEC13FCEF135011
:1003430002D2E0FF08B800067F7F74FF802EEF33F0
:1003530050178CF020F00260100CBC000C0DBD0097
:10036300080EBE000408E860DFE933E813FFEE235C
:1003730013FE4F4D4C8008E95480FFE4FEFDFCEE74
:1003830033EF33F47004FCFD7E80D0E0FBD0E0FA61
:10039300D0E0F8D0E0CFC618CEC618CDC618CCC66C
:1003A300F92200121083604F1210656012E7548027
:1003B30066F6120F127011121103703B090909F44A
:1003C300F618F618F618F622120F3A70151210F1F5
:1003D30008080860EAE6447FF618768018E4F61801
:1003E300F6221210F160161211037012E4F608F6E9
:1003F30008F608E65480F609090918181822EAC015
:10040300E0EBC0E0ECC0E0EDC0E0E687F0A4FBACBD
:10041300F008E687F0A42CFCE435F0FA1809E68727
:10042300F0A42C4B60027401CA35F0FCE433FB09E1
:10043300E687F0D2F7A42CCB35F0FC1908E687F059
:10044300A42BCC35F0FBE433FD0819E687F0D2E7A3
:10045300A42C4ACB35F0CD3400FC09E687F0D2E773
:10046300A42DCC35F0FDE433FA0918E687F0D2F772
:10047300A42CCD35F0CA3400FC08E687F0D2E7D2CD
:10048300F7A42ACC35F07A7E20E70B0ACB33CBCD09
:1004930033CDCC33CC33CB3350147004ED30E00E7A
:1004A300D2F1E4CD3DCDCC3CCC3B5005DA05C2F1D5
:1004B300EB547FC63308E63392F0FBE73309E733A7
:1004C300C39A502D2B70190C0D4C4D70151806E660
:1004D30008C333700D20F10AA2F013F6E418800B61
:1004E3004024E4F630F002768018F618F618F68009
:1004F30024D33B14501074FFA2F013F6187680E453
:1005030018F618F6800FA2F013F618E63303F61860
:10051300ECF618EDF6D0E0FDD0E0FCD0E0FBD0E047
:10052300FA22C0E074F112090FA2AFE433F509D245
:10053300AF85A708AFA1EF5508FE74105E600612E1
:1005430014D875A1EF74085E60081214DE75A1F764
:100553008024EFA2E092F0E508A2E082F050179029
:100563006198E0F8900636E0C398A2D265D0335084
:1005730002E8F075A1FE752300E509A2E092AF7FC2
:10058300020209CBC0E074F212090FA2AFE433FEFA
:10059300D2AF9061A4E0F8759B00E59158540860D0
:1005A300087591F712152C8023E5915854106008B3
:1005B3007591EF1215328014E591A2E092F0E8A252
:1005C300E082F05007E0C2E0F01216889061A3E0E9
:1005D300F8E5E9585404600E12165E75E9FB906164
:1005E30093E0A2E640F2752300EEA2E092AF7F0112
:1005F3000209CBC0E074F212090FA2AFE433FED2BA
:10060300AF9061A5E0F8E5BF585404600675BFFBE1
:100613001216A080D1C3E498F8E499F91206598020
:1006230026C3E49AFAE49BFBE920E7E9120659E4BE
:1006330098F8E499F922C3E498F8E499F912065971
:10064300E498F8E499F9C3E49AFAE49BFB22EB20DB
:10065300E7CFE920E7E0B90010BB0008E88AF0849F
:10066300F8AAF022E4FBC8FA22EB70227B10C8330D
:10067300C8C933C9335007C39AC3DBF280069A5003
:10068300012ADBEAC833F4C8C933F4C9FA2275F086
:1006930008E4C833C8C933C933C99AC99B5004C9CC
:1006A3002AC93BD5F0ECFBC833F4C8E4C9FA2212DB
:1006B30006FD30F03912074280341206FD20F01493
:1006C30030E72B74FFFCFBFA747F8022E4FCFBFA17
:1006D3007480801AB48008BC00F2BB00EF800F5016
:1006E300EBF9E4C39AFAE49BFBE49CFCE499C6CCE3
:1006F30018C6CB18C6CA18C6F922E4C9C608CAC6A2
:1007030008CBC6D3330308CCC63392F0C3947F40DF
:100713002E94184019C9B90704CACBCC225025C35B
:1007230009CA33CACB33CBCC33CC33D9F422F460EC
:100733000DC9CCC313CB13CBCA13CAD9F6CC22E44D
:10074300FCFBFA2214FCFBFA22080808EAC0E0EBDF
:10075300C0E086F0E7A4FA180986F0E7A42AFA189D
:100763000986F0E7A42AFA180986F0E7A42AFA19F9
:1007730086F0E7A4FBE5F02AFA190886F0E7A42B34
:10078300FBE5F03AFA190886F0E7A42BFBE5F03A0B
:10079300FA18180986F0E7A4C5F02BFBE43AFA1916
:1007A30008E7C5F0C6A426F6E5F03BFBE43AFA18E1
:1007B30086F0E7A4F6E5F00826F6E43B08F6E43A0B
:1007C30008F6D0E0FBD0E0FA22E4CFC0E0E4CEC0EC
:1007D300E0E4CDC0E0E4CCC0E075F020E626F60806
:1007E300E633F608E633F608E633F6181818EC3362
:1007F300FCED33FDEE33FEEF33FFC3EC9709ED97CA
:1008030009EE9709EF97191919400FFFEC97FC09A7
:10081300ED97FD09EE97FE191906D5F0BFECF70920
:10082300EDF709EEF709EFF7191919D0E0FCD0E05D
:10083300FDD0E0FED0E0FF222521C582C0E0E52205
:1008430034FFC583C0E0E521C3958224F810AF08C7
:100853008583228582218008858322858221D2AFE8
:10086300CEF0A3E520F0A37808E608F0A3DEFAEFC4
:10087300F0A3E58124FAF8E608F0A3E608F0A3E67E
:1008830008F0A30808E608F0A3E608F0A31581150D
:1008930081D0E0FED0E0F8158115811581E8C0E034
:1008A300EEC0E0221210DCB900030208F9E490055F
:1008B30001784E79188002F0A3D8FCD9FA782390F6
:1008C30000867A01BA00028007E493A3F608DAF9F6
:1008D3007A4E7B1C90008778E079018015E493A31E
:1008E300AD82AE838A828B83F0A3AA82AB838D828F
:1008F3008E83D8E9D9E77582FF7583927405120D4B
:100903007B7582F47583287400120D7BC0D025217A
:10091300C582C0E0E52234FFC583C0E0E521C3956D
:100923008224F310AF088583228582218008858382
:1009330022858221D2AFC8F0A3E9F0A3EAF0A3EBAA
:10094300F0A37908E709F0A3D8FAECF0A3EDF0A33C
:10095300EEF0A3EFF0A3D0E0F0A3D0E0F0A3D0E05B
:10096300F0A3E520F0A3E5F0F0A322E9799EC60801
:10097300CAC608CBC608CCC6C370207996CACBCCEE
:100983007019798ECBCC70137986CC700EF9802ACE
:10099300CA33CACB33CBCC33CC331930E7F2CCCB0D
:1009A300CA3350147004EA30E00DE4CA3ACACB3BB0
:1009B300CBCC3CCC500209C3E913C6CC182313C6D5
:1009C300CB18C6CA18C6F922852283852182E0C0C6
:1009D300E0A3E0F9A3E0FAA3E0FBA37808E0F608BC
:1009E300A3DFFAE0FCA3E0FDA3E0FEA3E0FFA3E0A6
:1009F300C0E0A3E0C0E0A3E0F5D0A3E0F520A3E0CE
:100A0300A3F5F010AF0885832285822180088583B2
:100A130022858221D2AFD082D083D0E0F8D0E032D9
:100A2300FF75F0108E248F258582298583288521E3
:100A330082852283E0CEA3E0CF852982852883EBBC
:100A4300C9EAC8EDCBECCAC3E833C8E933C9EA3312
:100A5300CAEB33CBC3EA9EF527EB9FF526B35004CD
:100A6300AB26AA27EC33CCED33CDD5F0DAAE24AFE9
:100A73002522121083601C12106560171210F1708A
:100A8300071211037001D322C0D01211037006D0D4
:100A9300D0B322C32233D0D0501430E0F6C3E7964C
:100AA3000809E7960809E7960809E796B32220E0C4
:100AB300D5E6970809E6970809E6970809E697B384
:100AC30022D083D082ECC0E0EDC0E0E493A3FCE449
:100AD30093A3FDED4C600D120B9CEC24FFFCED3455
:100AE300FFFD80EFE493A3FCE493A3FDED4C600DC5
:100AF300120C64EC24FFFCED34FFFD80EFD0E0FD2D
:100B0300D0E0FCE493A3C0E0E493C0E02285228319
:100B1300852182E0A3FEE0A3F5207808E0A3F60890
:100B2300DFFAE0A3FFE0A3C0E0E0A3C0E0E0A3C0DE
:100B3300E0E0A3C0E0E0A3C0E010AF088582218518
:100B430083228008858221858322D2AFD083D082FD
:100B5300020D81D083D082E9C0E0E493A3C386F081
:100B6300C5F095F0F908E493A386F0C5F095F0700D
:100B73000BE493A3C3994005E9048002A3E475F051
:100B830002A42582F582E5F03583F583D0E0F9E40C
:100B930093A3C0E0E493C0E022C0E0C3E4939608CB
:100BA3007401939618400FE49366700808740193D8
:100BB300661870007019A3A3C3E493960874019395
:100BC3009618A3A3400DD0E0D0E0D0E0020B00A321
:100BD300A3A3A3A3A3D0E02274048004740280001F
:100BE300CCC0E0EDC0E0E521C39CCCAD2250011D9B
:100BF30010AF068C218D2280068C218D22D2AF125C
:100C03000CFDD0E0FDD0E0FC2274028000CCC0E0FB
:100C1300EDC0E0E521C39CCCAD2250011D10AF0611
:100C23008C218D2280068C218D22D2AF120CB9D05B
:100C3300E0FDD0E0FC22C0E074F212090FA2AFE4A1
:100C430033FED2AFE58BA2E050057904121424756C
:100C53008B00C2E8752300EEA2E092AF7F01020988
:100C6300CBC0E0C0F088F0E4936670080874019389
:100C730066187000A8F0A3A3700BD0F0D0E0D0E00A
:100C8300D0E0020B00A3A3D0F0D0E022D083D08227
:100C9300CCC0E0E493A36006120D1E1470FAE49333
:100CA300A36006120E801470FAD0E0FCE493A3C094
:100CB300E0E493C0E022CAC0E0E493A3C582CCC5BC
:100CC30082C583CDC583F0A3C582CCC582C583CD40
:100CD300C583DAE5D0E0CA22A2E792D65002F40433
:100CE30030F70663F0FF05F0B3400384800384F418
:100CF3000430D60563F0FF05F022CAC0E0E0A3C5C7
:100D030082CCC582C583CDC583F0A3C582CCC58201
:100D1300C583CDC583DAE6D0E0CA22C0E0E493A35D
:100D2300D39C5010E493A3C39C400AD0E0D0E0D0FE
:100D3300E0020CACA3A3A3D0E022700908080822A8
:100D43006016181818C6C333C608C633C608C63398
:100D5300C608C633C6D5E0EA22C008C3E096F50844
:100D630008A3E096420808A3E096420808A3E09689
:100D730045087001D3D00822C09FF59FE473D09F2C
:100D830022D083D082C09FE493C0E0740193C0E07B
:100D9300740293F59F22C0E0C0D0E8C0E0A8A8D2B7
:100DA300AFC2C7752300E8A2E792AFD0E0F8D0D076
:100DB300D0E03200C0D0252110AF08F521500C053A
:100DC300228008F52150020522D2AFD0D02274042C
:100DD300800A74038006740280027401C0E0F40484
:100DE300120DECD0E012109F222521F58210AF08DE
:100DF300F521400C15228008F52140021522D2AFBF
:100E030085228322BB0102E722C082C08389828AB2
:100E130083BB0003E08002E493D083D08222601678
:100E2300080808C6C313C618C613C618C613C618BF
:100E3300C613C6D5E0EA222521F8E43522F9222596
:100E430021FAE43522FB222521FCE43522FD22C3CD
:100E5300E0C696F608A3E0C696F608A3E0C696F6A3
:100E630008A3E0C696F622252110AF08F521400C11
:100E730015228008F52140021522D2AF22C0E0E4FA
:100E830093A36C7009D0E0D0E0D0E0020CACA3A334
:100E9300D0E022C3E7960809E7960809E796080910
:100EA300E796A2D265D03322E76670100809E76699
:100EB300700A0809E76670040809E76622E06670AD
:100EC3001008A3E066700A08A3E066700408A3E0B4
:100ED3006622C3E09608A3E09608A3E09608A3E081
:100EE30096A2D265D03322C3E493960874019396F5
:100EF3000874029396087403939622C3E096F0084D
:100F0300A3E096F008A3E096F008A3E096F0221879
:100F13001818E60846087009E626087005E633F453
:100F2300220822C3E697F60809E697F60809E6972A
:100F3300F60809E697F622191919E709470970090E
:100F4300E727097005E733F4220922E026F608A310
:100F5300E036F608A3E036F608A3E036F622E657B5
:100F6300F60809E657F60809E657F60809E657F6BC
:100F730022E056F008A3E056F008A3E056F008A3D9
:100F8300E056F022E627F60809E637F60809E637C1
:100F9300F60809E637F622E647F60809E647F608B3
:100FA30009E647F60809E647F622700422600D18A1
:100FB300C6C333C608C633C6D5E0F41822E056F6D6
:100FC30008A3E056F608A3E056F608A3E056F62277
:100FD300E026F008A3E036F008A3E036F008A3E02B
:100FE30036F022E4C396F608E496F608E496F6088B
:100FF300E496F622C3E09608A3E09608A3E09608D9
:10100300A3E09622C6F4C608C6F4C608C6F4C6080A
:10101300C6F4C622600D08C6A2E713C618C613C6D7
:10102300D5E0F322C3E7960809E7960809E796088F
:1010330009E7962275D00075813F75210175220558
:10104300000208A7600C08C6C313C618C613C6D58A
:10105300E0F422E6F008A3E6F008A3E6F008A3E62E
:10106300F022E7094709C3134709336002E733F462
:1010730022E0F608A3E0F608A3E0F608A3E0F622D0
:10108300E6084608C3134608336002E633F42280B9
:101093000100E9F874FF28F90470F622CAC0E0E6FB
:1010A300F0A308DAFAD0E0FA22E0F8A3E0F9A3E02B
:1010B300FAA3E0FB22E8F0A3E9F0A3EAF0A3EBF044
:1010C30022EAF0A3EBF0A3ECF0A3EDF022E0FAA305
:1010D300E0FBA3E0FCA3E0FD22E5C754F84401F5DF
:1010E300C77901222521F582E43522F58322E626FC
:1010F30018461846184622C2AF75D69F0200002232
:10110300E72719471947194722120D8476E102127E
:101113000D8422E202120D8452E202120D84B2E225
:1011230002120D8446E302120D84F7E302120D84CA
:1011330048E402120D848CE402120D8426E50212A7
:101143000D8496E502120D84C5E502120D84CBE6EB
:1011530002120D84F5E602120D8449E702120D8492
:101163001DE802120D844BEA02120D84F9EA021201
:101173000D8466ED02120D84EBED02120D84EEF088
:1011830002120D841BF302120D845FF302120D840D
:10119300B8F402120D84CBF402120D8408F5021286
:1011A3000D84C5F602120D841CFE04120D8450FE3C
:1011B30004120D84A3FE04120D84A6FF04120D84F1
:1011C30084A404120D8400A504120D8433A5041213
:1011D3000D8461A504120D849FA504120D84DCA760
:1011E30004120D84FBA704120D8440A804120D847D
:1011F300D6A804120D8422A904120D84B6A90412E0
:101203000D848FAA04120D84EBAA04120D8449AB3A
:1012130004120D84BCAB04120D8400AC04120D84C3
:1012230058AC04120D847AAC04120D840AAD041276
:101233000D849BAD04120D84E7AD04120D8413AE2F
:1012430004120D8454AE04120D84EAAF04120D840B
:10125300D6B004120D84B1B104120D84ED7B0012DB
:101263000D84F77B00120D84047C00120D841A7C1C
:1012730000120D84897C00120D84AF7C00120D8452
:10128300C37C00120D84E47C00120D84FF7C0012E9
:101293000D84347D00120D845C7D00120D84857DE8
:1012A30000120D84B07D00120D84B97E00120D84EE
:1012B300037F00120D84257F00120D84747F0012BA
:1012C3000D848E7F00120D847AF104120D84A6F131
:1012D30004120D84C6F104120D84EDF104120D8481
:1012E30034F304120D8467F304120D8426F40412FC
:1012F3000D84C0F404120D84AD7F00120D84B27FFF
:1013030000120D84E57F00120D8434DC04120D8479
:10131300F9DC04120D840FDD04120D843EDD04128A
:101323000D84A1DD04120D84A4DD04120D84CDDD32
:1013330004120D84DFDF04120D8417F804120D84E8
:1013430064F804120D84A8F804120D84B2F8041290
:101353000D84BCF804120D841EF904120D8434FAB2
:1013630004120D84DEFA04120D847A8505120D84AD
:10137300418605120D84538605120D84C38605121A
:101383000D84DD9C05120D84EE9C05120D848C9D4D
:1013930005120D84979D05120D84B19D05120D84D0
:1013A300F37F00120D84EAFF02120D84C09D051223
:1013B3000D84D09D05120D84E29D05120D84949E2B
:1013C30005120D84D89A05120D845C9B05120D84B9
:1013D300C49B05120D84D38E05120D84E78E05126E
:1013E3000D845D8F05120D84AC8F05120D84E18F82
:1013F30005120D84069005120D84299005120D84A3
:10140300649005120D84919005120D84D8900512F5
:101413000D84AA9805120D84319905120D843A9909
:1014230005120D84619905120D84A99905120D8485
:10143300C09905120D8477A205120D8487A20512A7
:101443000D848AA205120D848DA205120D84F87FE6
:1014530000120D84F29005120D842A9105120D8459
:10146300789205120D84FC9205120D8485F9011200
:101473000D84B1F901120D841BFC01120D845BFC78
:1014830001120D8497FC01120D84ABFC01120D8433
:10149300C4FC01120D84B6FD01120D8469FE011214
:1014A3000D847DFE01120D8491FE01120D84B5FEA3
:1014B30001120D84CEFE01120D840CFF01120D8466
:1014C3003CFF01120D8469FF01120D8473FF0112A9
:1014D3000D84D9FF01120D84DCFF01120D84E6FF98
:1014E30001120D84F3FF01120D84D38205120D84C2
:1014F300F38205120D84328305120D845083051285
:101503000D846B8305120D84D18305120D84DD8355
:1015130005120D843A8405120D84498405120D8445
:101523006D8405120D842E8505120D843B850512ED
:101533000D844C8505120D8473FF02120D84BBFFCD
:1015430002120D84E7FF02120D8442F703120D8489
:101553009CF803120D84AAF803120D84BDF803123C
:101563000D84D2F803120D84E7F803120D84FAF800
:1015730003120D8476F903120D84DBF903120D8433
:1015830063FA03120D84DBFA03120D84B4FB031216
:101593000D84C4FB03120D84D3FB03120D84F69F49
:1015A30005120D841AA005120D8442A005120D84A4
:1015B3006AA005120D84408A05120D84678A0512FC
:1015C3000D84858A05120D84F48A05120D8400802A
:1015D30005120D84198005120D84258005120D84D2
:1015E300398005120D84578005120D846180051220
:1015F3000D846B8005120D847E8005120D84048199
:1016030005120D84798105120D84A88105120D84BC
:10161300F68105120D84458205120D846082051240
:101623000D846A8205120D847B8205120D84BE82AD
:1016330005120D849BFF03120D84E6FF03120D8434
:10164300B7D204120D84E3D204120D8400D3041222
:101653000D8413D304120D842ED304120D8488D366
:1016630004120D84B6D304120D84C6D704120D845C
:1016730024D904120D8456D904120D84B9D9041245
:101683000D8425DB04120D844DDB04120D8462DB13
:1016930004120D8472DB04120D84B2DB04120D8478
:1016A300F4DB04120D8404DC04120D847A97051212
:1016B3000D84949705120D84BC9705120D84D5975C
:1016C30005120D84F99705120D84179805120D84E0
:1016D3002E9805120D845C9805120D8477980512D7
:1016E3000D849A9E05120D84DE9E05120D84F1ED84
:1016F30004120D8401EE04120D8406EF04120D840E
:1017030038EF04120D8468EF04120D848BEF04127A
:101713000D84A2EF04120D84DCEF04120D8441F05A
:1017230004120D8483F004120D84CAF004120D8494
:10173300F7F004120D8422F104120D84E4940512CF
:101743000D84F69405120D840A9605120D840D96E8
:1017530005120D84D29905120D84089A05120D8481
:10176300209A05120D84629A05120D84729A05124D
:101773000D84B69A05120D84C09A05120D847CF867
:1017830002120D84BFF802120D8424F902120D8493
:1017930043F902120D84E5F902120D84EEF90212E7
:1017A3000D843FFA02120D8468FA02120D8475FA51
:1017B30002120D84E7FA02120D8475FB02120D84E6
:1017C300BAFB02120D84F3FB02120D8458FC0212C1
:1017D3000D8481FC02120D84F8FC02120D8447FD76
:1017E30002120D8484FD02120D84B9FD02120D84D0
:1017F300CBFD02120D84DDFD02120D84FCFD0212ED
:101803000D8405FE02120D84C6FE02120D8409FF2B
:1018130002120D8447FF02120D8404A105120D84E8
:101823003A9605120D84958C05120D84CB8C051206
:101833000D84138D05120D846C8E05120D840080AA
:1018430004120D84268104120D84628104120D8416
:10185300208304120D844E8304120D84B885041270
:101863000D84F88504120D849A8704120D84308840
:1018730004120D848A8804120D841A8904120D84BB
:101883005E8904120D84A08904120D84058B041251
:101893000D84858C04120D84C68E04120D84F48E7F
:1018A30004120D84208F04120D84298F04120D84D9
:1018B300868F04120D841F9004120D843693041234
:1018C3000D84BC9304120D844C9F05120D84649FF8
:1018D30005120D846E9F05120D84C49F05120D849D
:1018E30049E504120D845FE504120D8400E6041239
:1018F3000D843FE604120D845CE604120D848DE62C
:1019030004120D84DAE604120D840EE704120D842A
:1019130049E704120D8446E904120D84ACE904126C
:101923000D84DD9B05120D843C9C05120D847A9C6D
:1019330005120D84BB9C05120D84E68705120D84E8
:101943002A8805120D84418805120D849D8905128C
:101953000D84D28905120D84F48905120D845CA1CE
:1019630005120D84EBAC02120D84F7AC02120D8448
:1019730059AD02120D8463AD02120D84F2AD021251
:101983000D842EAE02120D8427AF02120D8484AF94
:1019930002120D8412B002120D8463B002120D8480
:1019A300E3B002120D84A5B202120D84AAB402128E
:1019B3000D84A4B502120D84D6B602120D8428B983
:1019C30002120D846BBA02120D8410BB02120D8435
:1019D300BEBF02120D84B4C002120D844AC10212AA
:1019E3000D846FC102120D840CC202120D8429C230
:1019F30002120D8449C202120D84B7C202120D8471
:101A0300D4C202120D8402C302120D849AC40212BC
:101A13000D84BBC402120D8461C502120D84A9C5D5
:101A230002120D8407C602120D84AAC602120D8487
:101A33000FC702120D846EC702120D8420C8021252
:101A43000D848FC802120D84CAC802120D843EC9C8
:101A530002120D8489CA02120D8419CC02120D845C
:101A6300B8CC02120D84F8CE02120D845ACF0212A2
:101A73000D8488CF02120D84ABD102120D8455D48C
:101A830002120D8468D502120D84339B03120D8458
:101A93003A9C03120D847D9D03120D848E9D0312C7
:101AA3000D84AD9D03120D84D69D03120D84AA9E51
:101AB30003120D84D99E03120D842FA303120D84E8
:101AC300CDA303120D840DA503120D8486AB03125F
:101AD3000D84D3B103120D845DB303120D8437A2B9
:101AE30005120D8404FC03120D84BFFC03120D8444
:101AF30025FD03120D8446FD03120D8421FE0312FE
:101B03000D84CFE103120D84FEE103120D8476E20E
:101B130003120D8485E303120D84E1E303120D84A4
:101B23004EE503120D846AE503120D84BCE503122E
:101B33000D84FFE503120D8412E603120D846AE699
:101B430003120D842CE703120D84A8E703120D84FE
:101B5300DFE703120D8417E803120D84A9E90312CA
:101B63000D8488EA03120D84D6EB03120D84B9ECBD
:101B730003120D8445ED03120D8485ED03120D84CC
:101B8300A4ED03120D84EFED03120D840FEE031287
:101B93000D84A8EE03120D842EEF03120D8489EF3A
:101BA30003120D84C9EF03120D845FF203120D8437
:101BB30078F303120D84BEF303120D84B3F40312FE
:101BC3000D84DBF403120D84DEF403120D84E8F4B8
:101BD30003120D8404F503120D847EF503120D84A4
:101BE300B7F503120D84E3F503120D840AF603120D
:101BF3000D842EF603120D849FF603120D84B2F6A4
:101C030003120D84E1F603120D848FA005120D84D7
:101C13009BA005120D84CFA005120D8498CE04124B
:101C23000D84A0CB03120D84C3CB03120D8410CDFE
:101C330003120D8459CD03120D84C5CD03120D84F7
:101C43000FDF02120D8426CE03120D8477CE03120A
:101C53000D84ECCE03120D8471CF03120D8474CF67
:101C630003120D84F5CF03120D8436D003120D84B5
:101C730022D403120D84CCD503120D841CD6031277
:101C83000D84A3D903120D84D6DA03120D8450DC1C
:101C930003120D84EDDC03120D8431DA02120D847C
:101CA3002DE003120D841B9404120D84C5940412B9
:101CB3000D84309504120D844B9504120D84D09538
:101CC30004120D842A9604120D84719604120D8455
:101CD300D89604120D84579804120D848699041221
:101CE3000D840E9A04120D84179C04120D84C49C57
:101CF30004120D84689D04120D84399E04120D8410
:101D0300F49F04120D848CA104120D841FA20412EB
:101D13000D8445A304120D84008003120D84638097
:101D230003120D84AB8003120D84EF8003120D8424
:101D33004A8103120D84A78103120D84E2810312E9
:101D43000D84648203120D84BE8203120D843C84CD
:101D530003120D84BC8403120D84178503120D84B2
:101D6300318503120D84528503120D84AC85031251
:101D73000D84288803120D84478803120D84378944
:101D830003120D846A8A03120D84E98A03120D84F7
:101D9300258B03120D84948B03120D84498C03123B
:101DA3000D84218E03120D84288F03120D84A090BD
:101DB30003120D84969203120D840C9503120D8465
:101DC300E69603120D84A79703120D841F9803123E
:101DD3000D84369803120D842D9903120D84219AD4
:101DE30003120D84909A03120D842AFB04120D84AE
:101DF30081FC04120D8440FD04120D84A8FD04121D
:101E03000D84F2F404120D840DF504120D8451F5C2
:101E130004120D8477F504120D849EF504120D84CB
:101E2300B6F504120D8458F604120D846DF60412EF
:101E33000D8490F704120D8499F704120D84A2F710
:101E430004120D84ABF704120D84B5F704120D844C
:101E5300CFE004120D84DBE404120D84E0E40412E9
:101E63000D84E2E404120D84719305120D8459A2CA
:101E730005120D840BA205120D84B4A105120D8465
:101E8300C4A105120D84B9E904120D84CCD3011247
:101E93000D84FFD301120D846BD401120D8406D57A
:101EA30001120D84A3D501120D84E8D501120D840E
:101EB3000AD601120D8423D601120D8449D60112CC
:101EC3000D846BD601120D84A9D601120D84EDD6B3
:101ED30001120D840FD701120D8471D701120D84E5
:101EE30038D801120D84EFD801120D8461D9011283
:101EF3000D842CDA01120D847FDA01120D84E5DAE8
:101F030001120D841FDB01120D8471DB01120D849C
:101F1300DFDB01120D844ADC01120D844DDC01125A
:101F23000D84CEDC01120D8465DD01120D84E5DD27
:101F330001120D8404DE01120D8468DF01120D8489
:101F430075DF01120D8481E001120D848EE0011210
:101F53000D8497E001120D846FE201120D8489E371
:101F630001120D8402E401120D8474E401120D8444
:101F730096E401120D842AE501120D84FEE6011296
:101F83000D84D5EA01120D84E9EA01120D84F9EA00
:101F930001120D8403EB01120D840CEB01120D846D
:101FA30015EB01120D841FEB01120D844CEB011292
:101FB3000D8475EB01120D8480EB01120D84A4EBEB
:101FC30001120D84C8EB01120D8432EC01120D8451
:101FD30078EC01120D8495EC01120D8412ED0112BF
:101FE3000D8449ED01120D8488ED01120D84D5EDA8
:101FF30001120D845BEE01120D8429F001120D8490
:10200300ACF001120D8490F101120D84F7F301126B
:102013000D8450F401120D849AF401120D84F5F528
:1020230001120D842AF601120D847CF601120D842F
:1020330031F701120D84E0F701120D841DF801122E
:102043000D84B2F801120D841EF901120D84302F94
:1020530000120D84622F00120D84902F00120D8444
:10206300663100120D84463200120D849E32001236
:102073000D84D93300120D84253400120D844E379C
:1020830000120D84413A00120D84913B00120D841D
:10209300273C00120D84333C00120D84653C001272
:1020A3000D84E83D00120D84993F00120D842D40EC
:1020B30000120D84704000120D84EE4000120D8456
:1020C3000B4100120D843B4100120D84704100123C
:1020D3000D84404200120D84E94200120D846F45C5
:1020E30000120D848F4600120D847A4700120D846E
:1020F300FC4700120D84304C00120D846D4C00120D
:102103000D84C54C00120D84F84C00120D84624DF1
:1021130000120D84984D00120D84234E00120D847D
:102123007B4E00120D84524F00120D840B5000128F
:102133000D84A65000120D84AE5300120D84CA54B0
:1021430000120D846D5800120D84615900120D8424
:10215300645900120D84935900120D84995B001287
:102163000D84725C00120D84B55C00120D840B5E4D
:1021730000120D844A5E00120D84D35E00120D849A
:10218300075F00120D84CC5F00120D84E46100121E
:102193000D84556200120D84956200120D84236331
:1021A30000120D84456400120D84076500120D842E
:1021B3000E6700120D84266700120D843A67001221
:1021C3000D84726700120D84A06700120D841F69CD
:1021D30000120D84446A00120D84A16A00120D845A
:1021E300536B00120D847A6B00120D84416C001244
:1021F3000D84D96C00120D84FF6E00120D84346FB0
:1022030000120D84976F00120D84C67000120D84A6
:102213006E7100120D849F7100120D84B77100124C
:102223000D84467200120D84FA7400120D84D27666
:1022330000120D84EE7600120D840A7700120D84CD
:10224300D87700120D84CB7B00120D84D596011232
:102253000D84079701120D84F69A01120D84429B97
:1022630001120D84889B01120D842A9C01120D8496
:10227300869C01120D84CB9C01120D84129E0112C7
:102283000D84269F01120D8415A301120D8499A3B9
:1022930001120D84A6A401120D8402A501120D845E
:1022A300F2A601120D8467A701120D8471A7011212
:1022B3000D847EA701120D84A9A701120D8490A895
:1022C30001120D843AA901120D84B8A901120D84DB
:1022D300D8A901120D8401AA01120D8423AA0112A7
:1022E3000D8483AC01120D8449AD01120D848EADB2
:1022F30001120D840BAE01120D84BCAE01120D84CC
:10230300EEAE01120D8434AF01120D8470AF0112D1
:102313000D84C0AF01120D8414B001120D846AB094
:1023230001120D84B6B001120D8423B101120D8484
:102333009EB101120D8469B301120D8469B40112B7
:102343000D848EB501120D84CDB801120D84E0BB4E
:1023530001120D849DBC01120D84E1BC01120D8498
:1023630091BE01120D84A5BE01120D84AFBE0112F0
:102373000D84B9BE01120D84C5BE01120D84E1BEE8
:1023830001120D848CBF01120D84CBBF01120D8489
:10239300D5BF01120D84DFBF01120D844FC001129E
:1023A3000D849AC001120D84AFC101120D840BC2BA
:1023B30001120D848CC201120D844BC301120D84D2
:1023C30054C401120D8488C501120D8476C601120E
:1023D3000D848EC601120D84E9C601120D8407C750
:1023E30001120D844FC701120D8476C701120D84AB
:1023F30011C801120D84D7C801120D8469C90112D5
:102403000D84E3C901120D84FDCA01120D84AACB08
:1024130001120D84D2CC01120D8422CD01120D8440
:1024230086CD01120D84E8CD01120D8416CE011262
:102433000D843ACE01120D846FCE01120D84A0CE0D
:1024430001120D84D3CE01120D84F3CE01120D843B
:102453005BCF01120D844FD001120D84AAD001125B
:102463000D84D3D001120D845BD101120D84DED112
:1024730001120D8409D201120D84EED201120D84D2
:102483008BB204120D84C3B204120D84E4B204129D
:102493000D8426B304120D8488B304120D8492B301
:1024A30004120D84A2B304120D84DDB304120D844F
:1024B300BDB704120D84AAB904120D8490BB041293
:1024C3000D8427BC04120D84C9BC04120D8424811D
:1024D30002120D84A28102120D84FE8102120D8468
:1024E300498202120D84648202120D848F820212C9
:1024F3000D84AC8202120D84B88202120D844F84C3
:1025030002120D84688402120D84ED8402120D847C
:10251300008502120D841F8502120D84C3850212E9
:102523000D84448702120D84F78802120D848D896D
:1025330002120D84908902120D84008A02120D8406
:102543001E8A02120D84B58A02120D84FD8A0212BC
:102553000D84008B02120D84C68B02120D84338C02
:1025630002120D84598C02120D84E48C02120D8424
:10257300028D02120D84488D02120D84FC8D02120D
:102583000D84468E02120D84758E02120D84D28E36
:1025930002120D84078F02120D84338F02120D84F1
:1025A300418F02120D848E8F02120D84FE8F021250
:1025B3000D84479002120D84939002120D84BF90F4
:1025C30002120D84CA9002120D84E89002120D8447
:1025D300D39102120D84DD9102120D84189202121E
:1025E3000D84289202120D84319202120D84859279
:1025F30002120D84999202120D84C89302120D8463
:10260300DF9302120D84F49302120D84829402125A
:102613000D84C79402120D84539502120D845E95A6
:1026230002120D84A09602120D84BB9602120D8431
:10263300079702120D84769702120D84AF97021248
:102643000D84C99702120D840B9802120D84DB9A34
:1026530002120D84889B02120D84F59B02120D84D5
:10266300359E02120D844D9E02120D84509E02125D
:102673000D845C9E02120D84709E02120D84789E5E
:1026830002120D84AB9E02120D84AD9F02120D84C3
:1026930034A002120D84A4A002120D8426A10212FA
:1026A3000D84E7A102120D8406A202120D84A7A2D3
:1026B30002120D8404A302120D8407A302120D84D7
:1026C30034A302120D8449A302120D84BDA3021286
:1026D3000D840CA502120D8412A602120D849DA670
:1026E30002120D84B8A702120D8480A802120D8471
:1026F300B1A802120D84D4A802120D84DDA802121F
:102703000D840CA902120D849CA902120D8452AAF5
:1027130002120D84C7AA02120D846EAB02120D843D
:10272300E3AB02120D841AAC02120D8458AC0212F0
:102733000D848EAC02120D84C6DB02120D8484CE8E
:1027430004120D84E1CD04120D84E1CC04120D8436
:10275300FACB04120D84EAC904120D84F8C80412DA
:102763000D8496C804120D848CCB03120D8482CB86
:1027730003120D8417CB03120D8448C903120D8471
:1027830006C903120D841ADB02120D8423CE031231
:102793000D840AC803120D84DEC703120D84FCD90D
:1027A30002120D84C9D902120D8495C703120D8438
:1027B300D6C603120D84C2C303120D8483C1031250
:1027C3000D8450C103120D84F7C003120D848AC017
:1027D30003120D8449C003120D8482BF03120D84BA
:1027E3001CBF03120D84BBBE03120D845BBE031218
:1027F3000D8432BD03120D84C6BC03120D841EBCAE
:1028030003120D8419BC03120D840DBC03120D8435
:1028130040B803120D841AB803120D84B4D90212FE
:102823000D8489D902120D8471D204120D843DD214
:1028330004120D84E6D104120D8454D004120D84C5
:10284300A6CF04120D84B8B703120D8459B703122F
:102853000D841AB703120D8407B703120D8409CF31
:1028630004120D84FCB603120D84CBB603120D843F
:10287300B8B403120D842BB403120D8477DA021259
:102883000D84E7B303120D84D8DD03120D84BBB3AB
:1028930003120D8426C804120D84F9C704120D8493
:1028A300C6C704120D849EC704120D843FC70412C9
:1028B3000D841FC704120D84EAC604120D8496C347
:1028C30004120D847EC104120D8468BF04120D84AA
:1028D300E8BE04120D8494BE04120D8448BE041293
:1028E3000D84A0BD04120D84FFCE04120D84FDFFE0
:1028F3000100000080FB000022E4738F000100EE62
:102903001C87000100EC1C35000400B51C250002E7
:1029130000B91C26000200BB1C27000200BD1C28B6
:10292300000100C71C29000100C81C840004003EEC
:102933001A860001005C1C2A000100C91C2B00013F
:1029430000CA1C2C000100CE1C2D0008004A1A2EC0
:10295300000100CF1C2F000100D01C30000100D16A
:102963001C31000100D21C32000100521A33000155
:1029730000531A34000100D31C36000100541A38E6
:10298300000100D41C39000100CD1C83000200EAC1
:102993001C63000100601A64000100CB1C65000188
:1029A30000CC1C6D000100611A71000800421A6618
:1029B300000100E91C43000100DA1C44000200DBB3
:1029C3001C45000100DD1C46000200DE1C47000818
:1029D30000581A48000100E01C4B000100E11C04F0
:1029E300000100ED1CA1000100F11C37000100F003
:1029F3001C88000100EF1C3C000100551A3D00013A
:102A030000D51C49000200E21C67000100621A4D58
:102A1300000200E41C4E000100E61C4F000200E728
:102A23001C3E000100D91C51000100561A5200013E
:102A330000D71C53000100D81C54000100571A0092
:102A43000000000000000136360101000102010010
:102A5300010301000104010606050200000701004D
:102A6300340801000F090401010D0100FF0E0800E5
:102A73000017020000190100FF1A0100011B0100E9
:102A8300FE1C0100081D0200001F010001200100BF
:102A930001210200002301000F240200002601008F
:102AA3000127010008280200FF2A0100072B010269
:102AB300402C0100002D0100012E0100012F010017
:102AC300FF30010B1D310800003A0100083B0100F3
:102AD3000F3C0100013D0100FF3E040000420400E1
:102AE30000460400004A0400004E040000520400A3
:102AF30000560400005A040000000000002001D327
:102B030096000001002001D496000002002001CFAE
:102B130096000003002001D0960000040042016DDE
:102B23009500000500420189950000060042014E10
:102B330095000007003001D1960000004042014E8D
:102B4300950000FDFF2101CB9601002000200564C4
:102B53001C010021002005651C01000002210566FF
:102B63001C02040000290526190204020229272A4F
:102B7300190204030229272C190204060210273222
:102B83001905040000210528190504040221272E34
:102B930019050405022127301905040702102734FB
:102BA300190103710301030103010301030103225B
:102BB30003020301031003000300030003000300E7
:102BC300030003000342030003240306030003007E
:102BD300030403120325032303250323030403042C
:102BE3000300030003000344030003000323030063
:102BF300036503210035038103000305030003007C
:102C03000300030003250323030302710230016061
:102C1300021102700201020202020280021002612A
:102C2300023A00410063027302720262024302002D
:102C33000213023800000200020402120200020022
:102C4300020002000204020402370037003C02447F
:102C5300020002390000020002650200023502810F
:102C630002000205028202830200020101710101D6
:102C73000101011101010131010101010180011073
:102C83000161013B0014006301730172016201439E
:102C9300010001130106013D013500040112010089
:102CA3000100010001000104010401330133013C6F
:102CB30001440132013600000100016501000135C4
:102CC30000810100010501820183010001030071FC
:102CD30000300160001100700031022003500480B5
:102CE30000100061000000140063007300720062B2
:102CF300004300000013000600000000000400125F
:102D0300000000000000000000040004003700374A
:102D1300003C0244000000000000000000650000C9
:102D2300003500810000000500000083000000362C
:102D3300000100060000000F00000000000000007A
:102D4300000000000003FFFF00000403FFFF00007A
:102D5300FFFF0FF4010005C4040320000100000B72
:102D6300000000000000000003010F00000000004D
:102D73000000000000000000000000000000000050
:102D830000000000000000000000000000481A726C
:102D93001A4E1A8219541A781A541A841A5A1A8211
:102DA30019541A781A601A821900000000661A82F0
:102DB3001900000000000000006C1A8219000000D6
:102DC3000000000000000000000000000000000000
:102DD30000000000000000000000000000000000F0
:102DE3000000000000000000000000D01C0100D023
:102DF3001C0200461C02808C2703004C1C0400525A
:102E03001C0480581C05005E1C06006A1C31007CF3
:102E13001C3300821C3400881CFFFF0000030003E6
:102E2300000400080010001F003E007B00F600ECC9
:102E330001D703AF075D0FB91E713D000007ECFD1D
:102E4300FDFDECDCDCCCBCACAC9C9C8C7C7C6C6C6D
:102E53005C5C5C4C4C3C3C2C2C1C1C03EAF5E5D51F
:102E6300D5C5B5A59595858575756565555545454F
:102E7300353525251515050AC422028E22059A2209
:102E83000794220C76220D8222FF000000160F0009
:102E9300000B150B020002220F3300000E0F5A69BC
:102EA30067426565416C6C69616E63653039D0D189
:102EB300D2D3D4D5D6D7D8D9DADBDCDDDEDF3030D8
:102EC30016181920231A1C1E3000034D4C465118A6
:102ED3001A250502000119161816161823030030C7
:102EE3003017181921301B1D1F30003C40423A3F58
:102EF3003F392F47300C0E020B040B0A0708000F53
:102F0300020402010101010902E803000000BE04FA
:102F13000A010024000300E80304091503100F034A
:102F23000A0C041E0828020C0508151E05C082C0E1
:102F3300831211C0901A8B7466F0A37420F0901A58
:102F43008D746CF0A37420F0901A8F7472F0A374D4
:102F530020F0901A917478F0A37420F0025C6B74E3
:102F6300F712083B901A7FE4F0E9901A7EF07C5840
:102F73007D1A7A807B1A121934901CE0E0901A882B
:102F8300F0901A897442F0A3741A023EF874F01296
:102F9300083BEAFEEBFF54807003023101901A7E76
:102FA300123F8D70030230FAEA241B1257F8707C2B
:102FB300EA241F1257F864137002A3E0706E8A822A
:102FC3008B8312314F901A99124D8A750A00750B33
:102FD30000800D123DCE126E6A121838AA0EAB0F86
:102FE300EA4B60488A828B83E0650C7004A3E0653A
:102FF3000D702C8A828B83A3A3A3A3E0F50EA3E019
:10300300F50FE50A450B8A828B83A3A3A3A360C3B1
:103013001240D0850A82850B83A3A3A3A380B78A1A
:103023000A8B0B8A828B83124D8680B4E508242A8F
:103033001257F8FCE5082402F8E43509F9E8FAE93F
:10304300FB901A99123236A3A3E06402703C8A8281
:103053008B83124D8A800B88828983A3A3A3A31237
:1030630040D0E849601F88828983E06A7003A3E047
:103073006B70E488828983A3A3E06C70DA901CE60A
:10308300125B28806BECF91220A2850882850983E4
:10309300E06401704FE5082418123138120DDD1277
:1030A3006412120BDBE5082412123138120DDDE530
:1030B30008123F81120DD9E508240B126416120B76
:1030C300DFE5082417123F1EE5082402FCE4350956
:1030D300FDE5082419FAE43509FB1228CA740A121B
:1030E3000DB6800CE064027007AA08AB09122180B8
:1030F300AA08AB091217A2EEFAEF6480802DEA54F6
:1031030002600C901CF97401F0EA6402FA8023EA6D
:103113005408601A12209CEA4B700B901A9B12629F
:10312300ED7A08123145EE6408FAEFFB80047A0069
:103133007B00026A9CF582E43509F583E0F50A78A1
:103143000A22FB901A7EE0F912190422A3A3E0F5E8
:103153000CA3E0F50D227B00901A7EE0F91218F81B
:1031630074042274F412083B8A088B098A828B83C5
:10317300A3A3A3124B82123F2938F583E02409FA53
:10318300126A3470030232298A828B837402124BCF
:10319300F7850882850983123236E8F0A3E91266BF
:1031A300AE8A828B83A3A3A3A3A3A3A3A3F0E5085F
:1031B3002403F8E4350912322B123F293AF583E050
:1031C3008E828B83A3A3A3A3F0EE2409FAE43FFB2F
:1031D3008E828F83A3A3125DDAF5838882E0A2E552
:1031E3008E828F83A3A3A3A3A3500474018001E45D
:1031F300F0E5082403F5828983124D8AEA12530B02
:103203003BF5831269FB120DD5123F283B125ECCAE
:103213008E828F83A3A3127BAA120DB6EEFAEFFB65
:10322300901A7E126A818016F98882F583E0FAA3E8
:10323300E0CA22124F27A3A3227402120DB67F0401
:10324300020B1074F212083B8A088B09ECFAEDFBAF
:10325300740E1210E7E0FC1211F68A0C8B0DAE0C03
:10326300AF0DEA4F6030AC08AD091211E4E96026F6
:10327300AC08AD09EEFAEFFB1211EAE970148E8285
:103283008F831240BDFAEFFB1211DEAA08AB0912BD
:10329300120E7900800279B4024E7674F012083B64
:1032A30074F6120E6AEAFEEBFF8C088D09750FB3F4
:1032B300852182852283E4F0750E008002050E903D
:1032C3002F2FE493F8E50EC39840030233C5AA0EEB
:1032D3007B001212328A0A8B0BEA4B60E08A828BE4
:1032E30083A3A31233CC28F0F8C3EE98EF940050D5
:1032F300CC7C157D007900AA08AB0912178A850AD0
:1033030082850B83A3A3A3A3126EA7E0F8EEC39851
:103313002925E0F8E433F9E50A28F582E50B39F5C8
:1033230083A3A3A3A3A3A3123F33A312594F8A0CCE
:103333008B0DAC0CAD0DAA08AB09121934850A82AA
:10334300850B83A3E06401700A1264127401123FB7
:103353004580447401120E4A850A82850B83124DFF
:103363008812121AE9603D74091210E7E0C0E012F6
:103373006412D0E0F074091210E7E0640370137470
:1033830001120E4AE508240BFAE43509FB1219343D
:10339300801274011210E71240D0E5081259353536
:1033A30009126E68850A82850B8312641E123F45DB
:1033B300A3A3E0C0E0E5082414126416D0E0F0757E
:1033C3000F00A90F740A026A99A3A3A3E0F8852149
:1033D30082852283E02274F712083BE9FE8A828BFE
:1033E30083A3A3A3A3A3A3E0540860338A828B839C
:1033F300A3A3A3A3A3A3E0540260218A828B83A384
:10340300A3A3A3A3A3A3A3A3E06406600F74E96E1D
:10341300600A74CD6E600574F06E7003122084022E
:10342300477574F012083B74EF120E6A740F121092
:10343300E71261D174081210E7E9F0ECFEEDFF74B6
:10344300051210E712453D124761A3E0F91212027B
:1034530074061210E71261D174061210E712539C1E
:1034630070030236E0123F6DE0FA74061210E7E0D3
:10347300F9121FC4123740F8A3E0F9E849700302B8
:1034830036E0EE2403F50AE43FF50BEE2406F508D7
:10349300E43FF5097C00850882F583124D8A850A8D
:1034A30082850B83E0F912120874031210E712618C
:1034B300D1850A82850B83E0C0E085218285228342
:1034C300123739D0E01254B1F98521828522831253
:1034D3003DD51250031233CFFAA3E0CA2407F58275
:1034E300E43AF583E8F0A3E41261DC2406F582E410
:1034F30038F583E4126E74124B76120DD5EE123F3B
:10350300293F125ECC74031210E7124B8224091276
:103513007BA4120DB674291210E7126EA112323079
:103523001254C43A126E68742B1210E7E0C0E0859F
:103533002182852283125363D0E0F074021210E7D4
:10354300E4F074251210E778081210740236377409
:10355300031210E7125E948882F583123728A3A31F
:10356300A312595AFB121220850E82850F83A3EAF8
:10357300F0A3EBF074031210E7123739A3123728C4
:10358300125B69A2E6500F850E82850F83A3A3A366
:10359300A3A3E0D2E1F074051210E7E0706B850E8F
:1035A30082850F83A31240D0901AD9E0687003A3D9
:1035B300E0697055850E82850F83A3A3A3123F088C
:1035C300750C00780C120DDD7808120DD1742912D8
:1035D30010E7E0F50C780C120DDD74271210E712DA
:1035E3000BDF901AE6120BDF790074191210E71241
:1035F3004D5A1221C8740A120DB6850E82850F83A7
:10360300A3A3A3A3A3E04405F074021210E7E0040C
:10361300FC8E828F83124D848E828F83A3A3A3E0BB
:10362300F912120874031210E71261D17402121016
:10363300E7E004F074031210E712539C606774020E
:103643001210E7E0FA74061210E71240D0C3EA98AA
:10365300E499505174021210E7123A1285218285BF
:103663002283E028F8A3E039F9E8240FF50EE439C2
:10367300F50F850E82F583E4F074031210E7123719
:10368300336401600302355274051210E7740112AA
:103693006A87F074031210E7125C5B123A35E8F0A4
:1036A300A3E9023576852182852283124D8A121F72
:1036B300CA852182852283120BDF74261210E7E06C
:1036C300FD74251210E7E0FC740A1210E7E0F9EE2E
:1036D300FAEFFB12207E7402120DB680438E828FA6
:1036E30083A3A3A3E0C0E0740C1210E7D0E0F012B0
:1036F30068F0E0C0E0740D1210E7D0E0F074061239
:1037030010E712539C7009740E1210E774B9800706
:10371300740E1210E77410F07409120E421221C2D3
:103723007411026A99E0850E82850F83A3A3A322F5
:10373300E0125489E022E0125489A3A32285218256
:10374300852283EAF0A3EB1253A52274F012083BFF
:1037530074E1120E6A74041210E7E9F07403121094
:10376300E7ECF074021210E7EDF08A0E8B0F742F62
:103773001210E7123151AA0CFB121FB87401121078
:10378300E7E9F0AA0CAB0D121FBE74011210E7E0BB
:103793007003023A0D852182852283E480158E828F
:1037A3008F83A3A3A3A3A3E0D2E3F0852182852281
:1037B30083E0041269DFF8852182852283E0C398C0
:1037C3004003023A0474011210E7E07003023A0462
:1037D300852182852283123A12E50C28F8E50D39FA
:1037E300F9E8240FFEE439FF8E82F583A3A3A3A394
:1037F300A3E0A2E040B5750800750A08750B0074D4
:10380300021210E7E060037508207C087D00790050
:103813007405120E4212178A8E828F83E0603E90E7
:103823001B29E06401701AE508D2E3F508750B1053
:10383300123A221210E7E8F0A3E912584D74FF8000
:103843007643080C750A0C8E828F83A3123A2D12CD
:103853006E6A74051210E774FFF0A3805A740412A1
:1038630010E7E06009E508D2E6F508750A0A8E82DA
:103873008F83A3E064FE7003A3E0F470307412122C
:1038830010E7740412643CF8741D1210E7E8124B3D
:10389300F77412120E42121EE67D007C007900744A
:1038A300151210E7AA82AB83121CB8800B123A22BE
:1038B3001210E7E8F0A3E9F074071210E7E508F047
:1038C300123F64C0E074091210E7D0E0F0740A12EA
:1038D30010E77401F07405120E421221867411125E
:1038E30010E7E060030239E2740D1210E71254ACE2
:1038F3008E828F83A3A3A3A3F0740D1210E7124B40
:10390300C5E50AF0A3E50BF074031210E7E0C0E08D
:10391300124B56D0E0125B696011901B29E0C0E0A6
:10392300740D1210E7124BA0D0E0F0740D1210E7E3
:103933001240D0850C82850D83A3A3A3A3A3123ABF
:103943001B241C1261CB126E84123A1D125B1B39AD
:1039530012690FC0E0124B3DD0E01269D4C0E0748D
:103963000D1210E7124683D0E01266D5C0E0740D45
:103973001210E7124679D0E0F0740D1210E7123AF4
:103983002D123A1B242A1261CB850E82850F83A345
:10399300A3A3A3A3A3A3A3E01261C4123F53C0E054
:1039A300124665D0E0F0740D1210E7124D8A850EB1
:1039B30082850F831269EA2428F582E43B126E683C
:1039C300123F5C1269FB120DD5125EC5EA12615DEE
:1039D3003B127BA8120DB67405120E4212218C8E77
:1039E300828F83A3A3A3A3A3E0D2E0F074111210E8
:1039F300E7E060030237A174011210E7E014023715
:103A0300AD7900AA0CAB0D12208A741F026A99E0EB
:103A130075F007A4F8A9F022A3A3124D8EE8228E15
:103A2300828F83A31240D4740522E0123A35A3A3F4
:103A3300A322F8A3E0F9850E82850F83A32274F0F5
:103A430012083B74E8120E6AE9852182852283F00D
:103A53008A0E8B0F8A828B83A3A3A3A3A3A3A3A3FF
:103A6300E0F9121FE28A088B09EA4B7003023B1E3E
:103A7300E50E12531F123F7C123F138521828522CC
:103A830083E06003023B217C04850E82850F83A3C0
:103A9300A3A3A3A3A3A3A3E0F9121FE8EE4F607BA4
:103AA3008E828F83A3A3A3A31240D074071210E7BF
:103AB3001263021240D074091210E7124C27C0E0BF
:103AC30074111210E7D0E01266B3A3A3A3A3A3A3B8
:103AD300A31240D0740F1210E7126E6A7412121000
:103AE300E7E4126A8FC8241FF582E438F583125E77
:103AF30090C413135403FC70027C048E828F83E002
:103B0300F97808120DD9742059FD744059F97403DA
:103B1300120E4212207E7402120DB6026A977C08BE
:103B2300850E82850F83A3A3A3A3A3A3A3A3E0F975
:103B3300121FE88B0BEA4B7003023A9FEE4F60DBD8
:103B4300852182852283E0F50C780C120DDD850832
:103B530082850983A3A3A3A3A3A3A3E0F50C780CF5
:103B6300120DDD8A828B83A3A3A3E0FB8A82850BDC
:103B7300831276C78A82850B83E0FA8E828F83A3B2
:103B8300A3E0F91228D07402120DB6023AA374F717
:103B930012083B74FA120E6AE9FE780179017F007C
:103BA300800379000F124F06E0FCEFC39C5026EF11
:103BB30075F007A4FC85F008AD08EA2CFCEB3DFD8D
:103BC3001244F5E0A2E050DA540C60D6E0A2E250D1
:103BD300D3780080CF8A828B83A3A3A3A3A3A3E07C
:103BE300703DE9A2E0400574016E70338A828B83D5
:103BF300A3A3A3A3A3A37401123EE5E0C0E074034F
:103C03001210E7D0E0124554E0C0E074041210E74C
:103C1300D0E0F074051210E7E8125E2F1221C2748F
:103C230006024772C082C083790112208A025C6B4C
:103C330074F412083BEA4B901CF96019E4F08A080B
:103C43008B09F50AF50B7808120DD17A0212315956
:103C5300120DB6800A7401F07A027B00123146021B
:103C6300324174F012083B74F3120E6A740312109B
:103C7300E7E4F0A3F0901A99123F1374011210E7CE
:103C8300E4F0A3124BFC04F0901AD3E0A2E3500338
:103C9300023D58123ED974091210E71210B8740984
:103CA3001210E77808121074901A9B7808120E52BB
:103CB30074051210E77808121056123DDC740512D1
:103CC30010E77808120FF750077A017B00023DC90D
:103CD30074051210E7780C121074901CE5E0F509D6
:103CE300780C79081207CCA80CA90D901CE6E0C348
:103CF30098E4995003E08001E8852182852283F0CE
:103D030074091210E77808121074C008C009C00AB9
:103D1300C00B74051210E7780C121074123DDC7896
:103D23000C79081207CCE4F50AF50BD00FD00ED0AE
:103D33000DD00C780C7908120F26901A9B780C1270
:103D430010568011123DCE126E6AEEFAEFFB121876
:103D530038AE08AF09EE4F60658E828F831233CC85
:103D6300C398502DEE2403F8E43FF9E0FA888289E2
:103D730083E0C39AF0602374031210E7124236748F
:103D8300011210E7EEF0A3EF12631DFEA3E0FF8024
:103D9300C48E828F83A3A3A3E4F08E828F83127BCE
:103DA3006174011210E712539C8E828F83A3A3A325
:103DB300A360911262F61210E7123DD58089740355
:103DC3001210E7124D8A740D026A991240D4901AA8
:103DD3009922125EBBA3A3A322901CE4127B69E485
:103DE300F50AF50B2274F012083B8A088B09890A3D
:103DF30078007900901A99123F13FBEE4B601E086E
:103E03008E828F83A3A3A3A3124D54601008E8707E
:103E130001098E828F83123F0FEA4F70E3901CE7F4
:103E2300124D8AC3E89AE99B4003023ECC7A0612FC
:103E33003ECFA80CA90DEA497003023ECC8A828BBF
:103E430083E508F0A3E509123EEEE50AF0901CE6CF
:103E5300124F0E123EE5A3E4F0A3F0901A99124D0F
:103E630054600D8E828F83A3A3A3A3126E6A80175F
:103E7300901A99126E6A901AD3E0A2E34009123E97
:103E8300D9901A9B1210B8901AD3E0A2E3503A7A51
:103E9300087B00901A7EE0F912190AEA4B4C4D7028
:103EA30028901CE4E0F508A3E085080CF50DE4F583
:103EB3000EF50F780C120DD17A087B00901A7EE074
:103EC300F91218FE7404120DB6026A9C7B001218D4
:103ED300328A0C8B0D2212191CEAF8EBF9ECFAED7D
:103EE300FB22123EE922123EEEA322F08A828B834A
:103EF300A3A322E508F0024775F08E828F83A3A364
:103F0300A3A3A3A322125806A3A3F022A3A3A3A3AC
:103F1300E0FEA3E0FF227F05020B10F582E43509E2
:103F2300F583E0F922EA123F2D222410F582E422E0
:103F3300123F3BA3A3A3A3221240D885088285097D
:103F43008322123F4922F0850A82850B83A3A32291
:103F5300E50E2411123F79E022E50E240E123F797B
:103F630022E50E2410123F79E022123F7122EE1255
:103F73003F2D3FF58322F582E4350FF58322240F8D
:103F8300F50AE43509F50B780A22E0F91217B48A29
:103F9300088B09EA4B2274F212083B890B8A088BBF
:103FA300098A828B83124D8A1220AEEA4B60047910
:103FB300B8806A1220BAE9F8902F20E493F9E8C395
:103FC30099400479B280567A15123ECFAE0CAF0DEC
:103FD300EA4F7004791080458A828B83E4F0A31240
:103FE3003EEEE50BF0750A007808120DD57C127DC4
:103FF30000EA24031269A6120DB6901A9F12539C6D
:104003007008901A9F800C1240D0888289831240D6
:104013002370F4EEF0A3EFF01220CC7900024E7679
:10402300124D8EEA4B8882898322C082C083901A04
:104033009F80048C828D831276C8EC4D60288C821D
:104043008D83A3A3E069600574FF6970E68C828D9C
:1040530083A3A3A3E06A7003A3E06B70D6EC2403ED
:10406300FAE43DFB80047A007B00025C6B74F71278
:10407300083BE9FD74FE6D70047C0180027C0090B6
:104083001A9F80096D70027C018882898312539C78
:10409300601F88828983A3A3A3E06A7003A3E06BF4
:1040A30070E7ECA2E088828983A3A3E050D6F9806D
:1040B3000279FE024775EEF9800CA3A3127B69EE29
:1040C300227402120DB67F02020B10F5831240D444
:1040D300221240D822E0F8A3E0F9221240D88E82BF
:1040E3008F8322120DB67F03020B10C082C0837927
:1040F30000901A9F800109E0FAA3E08A82F583E524
:1041030082458370F1025C6B74F612083BE4F50898
:10411300F5097808120DD9902F20E49375F013A4B4
:10412300A9F012422B126EC8120DB6E9FE74096E85
:1041330070031220C60240B974F612083B74FE12D3
:104143000E6A852182852283E4F0A3F0A821A922A7
:10415300880889097808120DD9750802750900784D
:1041630008120DD9126B39120DB60240C474F51240
:10417300083B74EB120E6A852182852283E4F0A347
:10418300F0901A9F80748E828F83A3A3E0C0E074A3
:10419300021210E7D0E012584DA982AA8389088A37
:1041A30009750A007808120DD57C127D0074061279
:1041B30010E7126E8D120DB67402120E3A8808893A
:1041C300097808120DD97508137509007808120DBE
:1041D300D974041210E712533F75F013A4F8AAF030
:1041E30075F013E9124227126B41120DB685218235
:1041F3008522831242368E828F83123F13EE4F70D5
:1042030085A821A922880889097808120DD975087B
:10421300027509007808120DD9126B39120DB674A4
:10422300150240E6A42AF9E82402FCE439FD7A42A7
:104233007B0022E02401F0A3E03400F02274F412A6
:10424300083B74EB120E6A7E007F00A821A9228826
:104253000889097808120DD97508028E09780812A1
:104263000DD97C007D007A42126ED4120DB6E9702E
:104273006C8E0880567402120E3A880A890B780AEB
:10428300120DD9750A13750B00780A120DD9E508BA
:1042930075F013A4F8AAF075F013E509124227127A
:1042A3006ED6120DB6E9701B74031210E7AA82AB27
:1042B3008374021210E7E0F91220A8E970050EEEEC
:1042C30070010F0508E50870020509852182852222
:1042D300831240D0C3E50898E509994098EEFAEFB8
:1042E300FB741502323E74F612083B8C828D83A355
:1042F300A3124542F0EA1261633BF583E0C0E0128A
:1043030044FFD0E0F0EA241DF582E43B1240CE12D4
:1043130044E312453DF0A3F0EA241FF582E43BF5A4
:1043230083123F13EC1244D63DF583EEF0A3EFF076
:104333001244DC3BF58312450DA3A3A3A3A3A3EE71
:10434300F0A3EF125DBEFE8C828D8312454C740385
:104353005EFEC3940340030244C9EE600874026E18
:1043630060030243EE8C828D83E0540CFE740C6E6A
:10437300700302442DE0A2E4400D88828983E08C1F
:10438300828D83A312456274086E600302442D126A
:1043930044ED7401F08A828B83A3A3A3A3A31258D1
:1043A3001370148C828D83E0440C124554A3A31222
:1043B300450DEEF0A3EFF08C828D83E0A2E4402B59
:1043C300888212451B124530500109F58212451BA4
:1043D300A3A3A3A3A3A3F0A3EF12455C8C828D83B5
:1043E300A3A3A3F0E82403F850010988828983E09A
:1043F300C0E0EC2411F582E43DF583D0E012454C96
:104403008C828D83E0A2E7507588828983E0FE8CDD
:10441300828D8312456274FC5E700C8C828D83A343
:10442300E054036403701E0244C91244EDE4F074C3
:104433000C6E600302439888821245211245305066
:1044430001090243BA8C828D83A3E054036032884E
:10445300828983E0C0E0EC1245073DF583D0E0128A
:1044630045638C828D83E0540364027014888289CF
:1044730083E0C0E01244F5D0E01245638003A3E477
:10448300F0EC12530B3D126E68EC2410FEE43DFF7A
:10449300EA241DF582E43BF583E0F5088E828F83E1
:1044A300E0C3982508F508F0EA2417F8E43BF988F7
:1044B30082F583E0C39508C0E01244E3D0E0125DC7
:1044C300BEC39508500A1244E3E4F01244FFE4F03B
:1044D3000240C92415F582E422EA240DF582E42280
:1044E300EC240DF582E43DF58322EC1254C43DF532
:1044F3008322EC2414F582E43DF58322EC123F2D54
:104503003DF583222413F582E422E0FEA3E0FF8C31
:10451300828D83A3A3A3A322124521A3A32289836C
:10452300E0F508A3E0FFE5088C828D8322A3A3A313
:10453300A3F0A3EFF0E82402F822124542A322E4F9
:10454300F08C828D83A3A3A32212456AA882A98338
:1045530022123EE9A3A3A3A32212456AA3E022A346
:1045630012456A08A98322125DC7A32274F41208B4
:104573003B74F3120E6A8A0A8B0BECFEEDFF8C82FE
:10458300F583E0540CF508E0A2E75006E508D2E70E
:10459300F508E508D2E1F5081258137006E508D2CC
:1045A300E4F508E0A2E55006E508D2E5F5087C0845
:1045B3007D007900AA21AB2212178A74021210E738
:1045C300E508126E6EC0E074031210E7D0E0124BE0
:1045D300FCE50AF0A3E50BF074051210E71266DAA6
:1045E3001210E7E0707774081210E7124B82125D25
:1045F300B0381266F5C0E074081210E7124683D093
:10460300E01266D5C0E074081210E7124679D0E0D4
:10461300F074081210E712466FE0124BAA124C2BEB
:104623001261C4EE24111257DFC0E0124665D0E0D8
:10463300F0EE24141257DFC0E074081210E7124B97
:10464300822435F582E438F583D0E0124BCFC0E005
:1046530074081210E7124B86D0E012642E740D0218
:10466300323EE82432F582E439F583221240DEA398
:10467300A3A3A3A3A322124B961268D438F58322D3
:10468300124B962426F582E438F5832274F7120838
:104693003B7E008A828B83A3A3A3A3A3A3A3A3A389
:1046A300E0640460030247511254BCE06003024714
:1046B3005112531E3B12539A700302475188828949
:1046C30083E054036003024751E81254C439F5836D
:1046D300E0FA8C828D83A3A3E0FBA3E0CB2411F546
:1046E30082E43BF583E06A706588828983A3A3A390
:1046F300A3A3A3A3A3A3124755E06A7003A3E06B8C
:10470300704C88828983A3A3124761E0FFA3E0CFA3
:1047130024061257DF6A7003A3E06B703188828925
:1047230083A3A3E0F88C828D83A3A3E0F9A3E0F530
:10473300838982A3A3E06860138C828D83A3A3A3E0
:10474300E0F5838982E0540C640470027E01EEF983
:10475300802012475922124D928C828D8322A3A36B
:10476300124759A3A322740C1210E7E0F9740D1237
:104773000DB67F01020B1074F612083B74FC120E87
:104783006AEAFEEBFFECFAEDFB8C82F583A3E054BF
:10479300036016901A9512539C60597900EEFCEF52
:1047A300FD125FBB1228FC804B852182852283EE9C
:1047B300F0A3EFF074021210E7124BF1AC21AD221B
:1047C3007AE47B2012230C8A088B09A808A909EA3A
:1047D3004960218A828B83A3A3A3A3A3A3A3A3A337
:1047E3007406F07A0088828B83124B82126184E014
:1047F300F912226A74040240C674F212083B74F37D
:10480300120E6AEAFEEBFF8A82F583A3A3A3A3A396
:10481300A3A3A3A3A3E0F50A901CF9E0700579BA5A
:10482300024B3A750801750900750C00750D007C83
:10483300087D007900AA21AB2212178A7405121091
:10484300E77401124C045404601274021210E7E07E
:10485300D2E6124C0454087003750803E054106048
:104863000674404508F508E05408602274021210EB
:10487300E7E044C0124C045420600A74031210E7AA
:10488300E0D2E0800874031210E7E0D2E1F0EE24F6
:10489300151257DF124B6A700374016970067408AE
:1048A3004508F5088E828F83A3A3A3A3A3A3A3A381
:1048B300E070161223668521828522831261D174EA
:1048C300021210E7E0D2E28030640F70107402121B
:1048D30010E7124C0C74044508F508807F8E828F14
:1048E30083A3A3A3A3A3A3A3A3E064028E828F83C2
:1048F300700A126EA1E8F0A3E9F08060A3A3A3A35A
:10490300A3A3A3A3E06403700DAC21AD22EEFAEFE1
:10491300FB12211A80468E828F83A3A3A3A3A3A392
:10492300A3A3E064017035901B29E06010740212A8
:1049330010E7124C0C750910750AFF8018740212E7
:1049430010E7E0440C124BFC74FDF0A374FFF07409
:10495300044508F5088E828F83123151EE24151217
:1049630057DFA2E0503F74021210E7E0540C701BB3
:104973008E828F83124D8A121D84E9700579BB02E2
:104983004B3A74021210E7E0D2E5F0EE2415125709
:10499300DFA2E0501074021210E7E0540C640470BC
:1049A30004E0D2E5F0EE24111257DFC0E0740412E4
:1049B30010E7D0E01266DC1210E7E06003024B332D
:1049C30074081210E7124BC5E508F0A3E509F012CD
:1049D3004B60E0C0E0124B56D0E0F0124B47E0C012
:1049E300E074081210E7124B8212450738F583D0A2
:1049F300E0124C2B64017011901B29E0C0E0740895
:104A03001210E7124BA0D0E0F074081210E7124B1B
:104A1300C0124B51FAE8241CF582E439F583EA12FB
:104A23004BF7EE2415FAE43FFB8A82F5831276C82E
:104A3300E8125B1B39F583124BF1EE241C1257DF8E
:104A4300C0E0124B3DD0E0125C61124B6A700374FC
:104A53000169701374081210E71254ACFAEE241DA6
:104A63001257DFF9121FEE8E828F83A3A3A3A3A392
:104A7300A3A3A3A3E0C0E074081210E7124683D0F7
:104A8300E0F074081210E7124679E50AF074081290
:104A930010E712533F2428F582E439F583E50CF03F
:104AA300A3E50D124BD7124BAA1258581261C4EE4C
:104AB300124B51C0E0E82433F582E439F583D0E0AA
:104AC300F0EE241B1257DFC0E074081210E7124BFC
:104AD30086D0E0F0EE241A1257DFC0E074081210FB
:104AE300E7124B822432F582E438F583D0E0124B8F
:104AF300CF124B76120DD51268DA1276C8740B12E8
:104B030010E7124B82242F127BA4120DB6EE24154C
:104B13001257DF54406012901AB512539C600AAAD0
:104B230021AB22125FBB1228FCAA21AB2212218CDB
:104B3300740C1210E7E0F9024E71E82420F582E4C8
:104B430039F58322EE2419F582E43FF583221268B6
:104B5300E9E022E82412F582E439F58322EE2418F1
:104B6300F582E43FF583225480F8A3E05401F974FD
:104B7300806822F508A3E0F509750A007808221277
:104B83004B9622124B962434F582E438F58322A304
:104B9300A3A3A3124B9A22E0F8A3E0C822124B96D8
:104BA3001244D638F58322FAA3E0FBE8242AF582DF
:104BB300E439F583EAF0A3EB22A3A3A3A31240D421
:104BC300EE2212534312532339F58322F0EE2413BA
:104BD30012586022F0EE240D12586022E0FC8A8203
:104BE3008B83E02CFCA3E03400FD8A828B83ECF002
:104BF300A3EDF022F0A3E4F022F085218285228345
:104C030022F0EE241512586022E0D2E3F0124C1485
:104C1300228E828F831240D8852182852283E8F0F9
:104C2300A3E9F022E8F0A3E9126317E02274F71274
:104C3300083B8A828B83A3E0640170047E63800255
:104C43007E648A828B83E060087905124C6424F3C6
:104C5300FE901AD1E06007F9124C6424F2FE024779
:104C630051122234E9F8EEC3982274F612083B7409
:104C7300FE120E6A8521828522831261D1E9FEEC40
:104C8300FAEDFB9005C212539C6032A821A9228839
:104C93000889097808120DD97D01740E1210E7E016
:104CA300FCEEF99005C21261A51228FC7402120DE4
:104CB300B6EA4B60047900800679B2800279B602C5
:104CC30040C474F712083BE9FE901A8B12539C60A0
:104CD3001F74091210E7E0F5087808120DDDEEF9EC
:104CE300901A8B1261A51228FC7401120DB6800272
:104CF30079B602477574F712083B8908ECFEEDFF9D
:104D030079B5E508245E602014600624F8603480D9
:104D13003D9005C4124D546035126EE51228FC8E89
:104D2300828F831261D18024901A8D1276C8EC4D44
:104D3300601CEEFCEFFD901A8D1261A51228FCE9B0
:104D4300F9800B901A89124D5A12193479000247CF
:104D530075124D8EEA4B221276CCEEFAEFFB2274DB
:104D6300F712083BE9FE79B574AB6E700B901A89A4
:104D7300124D8A12193479000247758E828F83A3EC
:104D8300A3A3A3A3A3A3A3124D8E22124D9222E0A9
:104D9300FAA3E0FB2274F112083BEAFEEBFF8C0A54
:104DA3008D0B750801901AD9E06E7003A3E06F7044
:104DB3000C124E65AA0AAB0B121934805E12236CD7
:104DC300EE6A7002EF6B7009AA0AAB0B12237280B2
:104DD3004AAC0AAD0BEEFAEFFB121EC2E9F50890DE
:104DE3001CECE07036122804E97030E508702C9052
:104DF3001AA9E06E7003A3E06F7020EE4F601C757C
:104E03000CA1750D1A750E00780C120DD57C087D5A
:104E130000AA0AAB0B126E91120DB6A9080277C451
:104E230074F212083BEAFEEBFF8C088D09750A0148
:104E3300124E65EEFAEFFB12192EE9640170119020
:104E43001AD91240D0850882850983126E6A800EB2
:104E5300AC08AD09EEFAEFFB121EC8E9F50AA90A80
:104E630080111223608A0C8B0DAC0CAD0D22740DD6
:104E7300120DB67F06020B1074F612083BEAFEEB26
:104E8300FF7A0D7B00121832EA4B6062EE24241283
:104E93006B6EF0EE2425126B6EA3124F33126B74FC
:104EA300A3A3126907124F0EF0EE124EF4124F2312
:104EB300E8F0A3E9124F4A124F1B126E6AEE124E2C
:104EC300FD1269CAA3A3A3A3F0EE24331257DFC0D4
:104ED300E0124F06D0E01266F9124F1BA3A3A3E81A
:104EE300F0A3E9124F42C0E01254BCD0E0F00240FC
:104EF300C9242AF582E43FF58322242EF582E43F78
:104F0300F58322EA1259353BF58322124F1222E030
:104F13008A828B83A3A3A322126A29A3A3A3A32216
:104F2300124F27221240D88A828B83A3A3A3A322E2
:104F3300F0124F3822EE2426F582E43FF58322F067
:104F4300EE243212586022F0EE242C1258602274A0
:104F5300F412083B74FE120E6AECFEEDFFEC24160D
:104F63001257DF64057010EC2406FCE43FFD1221A8
:104F730014E97003024FFEAC21AD22126C23121D03
:104F83008A85218285228312539C606B8E828F8354
:104F9300E064017058E875F009A4F8AAF075F00907
:104FA300E9A42AF9740228F8740839F9E8FAE9FB44
:104FB3008882F5837808121074EE1250A0120FF74E
:104FC3004027852182852283124BC01257ED125050
:104FD3000378081210749096677808120F4E8A822D
:104FE3008B837808121056800A79A28010EE240F62
:104FF300126E647900800679A1800279C802323C7E
:10500300124C21EE1268F52274F212083B8A0C8BC3
:105013000DECFEEDFFEC1257EDE4F0A3F0909633A8
:105023007808121074EC1250A0120EC06067EC24C2
:105033000E1257E6703478B3901AD0E07028901BA4
:1050430002E064017020EC24111257DFF912221CD4
:105053008B09A909EE12531F3F1261CFEA4960047D
:105063007800800278A18808802EE06004640270D2
:105073000A122126E9F5087007801DE06403701009
:10508300EEFCEFFDAA0CAB0D121DAEE9F50880088E
:105093007508A180037508A3A908024E761268F566
:1050A30078082274F012083B74F5120E6AEAFEEBDC
:1050B300FFEA240AFCE43F8C82F583127B651253DA
:1050C300297403120E4A8A828B83125FC5E9700327
:1050D30002518F7401120E4A7403120E42121D8A7A
:1050E30074011210E712539C700302518FE875F09C
:1050F30009A4F8AAF075F009E9A42AF974FE28FCBA
:10510300740739FDE508240E126416E4F004121046
:10511300E71240D0E50812531F3509126E688C82DE
:105123008D831210ACE50824121264161210B89085
:10513300966778081210748C828D837808120FD3C7
:105143008C828D83780C1210749096577808121005
:1051530074780C79081207CCE5084509450A450B14
:10516300702A74011210E712533F75F009A4F8AACC
:10517300F075F009E9A42AF9740628F58274083950
:10518300F5837401F07A007B0812534C8E828F836F
:10519300A3A3A3A3A3A3A3A3A3A3E02406FCA3E025
:1051A3003400FD8E828F83125FC51266E7603EEE88
:1051B300240A125311124BC57468124BF7E81253A9
:1051C3000B39F5837402F0901ABB1210AC8C828DEC
:1051D300831261BE125DB03CF5831210B8909667DE
:1051E3007808121074901ABB7808120FD3125387E1
:1051F300705D901A89125337A3A3A3A3A3A3A3A3F8
:10520300A3A3125DE612192EE97010125DA4901A81
:1052130089125DB670051266E760348E828F83A3B0
:10522300A3A3A3A3A3A3A3A3A3125337124D8A1229
:105233001DB4E960118E828F83A3A3A3A3A3A3123A
:105243005373E4F0A3F08E828F83125359E4F01268
:10525300538760030253068E828F83A3A3A3A3A362
:10526300A3127B61901AD0E060030252FB901B02F1
:10527300E0640160030252FB750A3A750B00780A79
:10528300120DD97402120E3A880A890B780A120D8C
:10529300D9127160120DB6E9705BE508240E126431
:1052A3001674011253A1C0E0E5082411126416D04C
:1052B300E0F0E508240F126416743A124BF7901AC3
:1052C300B71210ACE50824121264161210B89096A7
:1052D300677808121074901AB77808120FD3909653
:1052E300677808121074901AB77808120EC0700805
:1052F30012534880031253291253877006125CA776
:1053030074A1F0740B026A99240EF582E422F8E486
:105313003FF9E8FCE9FD8882F58322EA1253232250
:10532300240FF582E422E5081253233509F583E4BB
:10533300F0A3F0221276CC8E828F83221253432263
:105343001240D8E8227A007B02901962E0F9121722
:10535300DE228A828B83A3A3A3A3A3A3A3A3A3A3D2
:1053630012536722124B9A240EF582E438F58322F6
:10537300A3A3A3A312537B22124B9A240FF582E417
:1053830038F583228E828F83A3A3A3A3A3A3124BF7
:1053930092240FF582E438F58312534349221253C2
:1053A300A522F0852182852283E02274F612083B30
:1053B300EAFEEBFF7A237B00121832EE240AF5088B
:1053C300E43FF5098508821261CF7C237D007900D3
:1053D30012178A85088285098312539C700302542D
:1053E3006FEEFAEFFB12213212538760748E828FB5
:1053F300831254A264018E828F83A3A3A3A3A3A3C6
:105403007007125498740E802112539C7010126608
:10541300E7700B8E828F83A3A3E0A2E050071254A0
:105423008E740D800512548E74051266F95403644C
:105433000170071254767405800B901AD1E0C0E016
:10544300125476D0E01254B1F583888212580C8539
:105453000882850983124B8212616338F583E980E0
:105463000E850882850983126248800312618BF0DE
:105473000240C98E828F83A3A3A3A3A3A3A3A3A341
:10548300A312548822E01261AAA3228E828F83A3DF
:10549300A3A3A3A3A3124B9212616938F58322A39A
:1054A300A3A3A3A3A3A3A3A3A3125367E02212540A
:1054B300B522126C38F8A3E022EA1254C43BF583F8
:1054C30022240CF582E42274F112083B74E4120ED8
:1054D3006A8A0C8B0D8C088D097A237B0012183293
:1054E3008A0A8B0BAE0AAF0BEA4F70030257C7123F
:1054F300616FE50824151257F8687003A3E0698EFD
:10550300828F837004740280027401F0E508240D15
:10551300F8E43509F98882F583E0FAC3E49AFA9549
:10552300E0FB1257F42AFAA3E03BFB8E828F83A39E
:10553300A3A3A3125DCD8E828F83A3A3F0EE2420B9
:10554300F582E43FF583E4F0EE2421F582E43FF5B0
:1055530083E4F0EEFAEFFB1221E6850882850983E6
:1055630012581370098E828F83A374058006901AD4
:10557300D1125801F0EE2417F50AE43FF50B8E82A1
:105583008F8312580CE9850A82850B83F0EE24166B
:10559300F8E43FF9E508240EFAE43509FB8882892B
:1055A30083124BDFE5082410FAE43509FB850A82F0
:1055B300850B83E0FC88828983E0F88A828B83E011
:1055C300C398C39CF812584DF0EEFCEFFDAA0CAB48
:1055D3000D12212CE9F50B8E828F83E06402700695
:1055E300125DA41257D1E50B60030257BE750C0080
:1055F300750D00901CECE064016005E06402703FEF
:105603001257E36008EE24211257E670328E828F20
:1056130083A3A3A3126191125819EE24161257DF24
:10562300125842FAE439FB123ED1EA4B6011126977
:10563300F3120DD5125827AA0C126E91120DB6EE65
:10564300FAEFFB1221F2E9F50B901CECE064016028
:1056530008E0640260030257B1E970030257B1E541
:105663000C450D70030257BE8003850E0B1257E3E2
:10567300600BEE24211257E660030257B7850B0E29
:10568300850C08850D09750A007808120DD5125886
:10569300278E828F83A3A3A3A3127BAA120DB6EE38
:1056A30024201257DF600D1257EC7468124BF7EE8B
:1056B30024208015EE24211257DF60151257EC7455
:1056C30003F0A37401F0EE2421F582E43FF583E4B3
:1056D300F0EEFAEFFB1221F2E9F50B70907C137DEB
:1056E3000079007409120E4212178A741A1210E715
:1056F300740112585864687002A3E0704F8E828F51
:1057030083125373E06405600302566D7C0879FFCE
:105713008E828F83A3A3A3A3E0242A125DE9121828
:1057230014E9700302566D7C087D0079FF74011241
:105733000E4212178A7401120E4A7A007B0079AB6B
:1057430012210E74191210E774FC80151257ECE045
:1057530064037004A3E06401700874191210E77401
:10576300FFF0E4F508F5097808120DD97402120E5A
:105773004A74131210E7AA82AB831262CE120DB6DB
:10578300852182852283E0602B7409120E3A8808F2
:1057930089097808120DD97508137509007808125C
:1057A3000DD97C007D00126B41120DB68006E50C0D
:1057B300450D6007AA0CAB0D121838EEFAEFFB1279
:1057C30018388003750B10A90B741C0277C1EE24E3
:1057D30006FAE43FFB12193422EE240C125860221D
:1057E300EE2420125860640122EE1253233FF58306
:1057F30022E508240EF582E43509F583E0221258E8
:1058030006A322E08E828F8322A3E0F912223422A0
:10581300E0540364012212581D22E0FAE82AF8E456
:105823003400F9228E828F83A3A3A31261951258A9
:105833001DEE2416125860125842FCE439FD22FA78
:10584300E82AF8E439F9E8240422125851221267AD
:1058530008A3A3A322F012585D22EE240FF582E4DD
:105863003FF583E0227901020D8174F412083BEACB
:10587300FEEBFF8A82F583A3A3A3A3A3A3A3A3128F
:105883004B822424F582E438F583125813702E8A50
:10589300828B831254A2702512593BE06405701D5C
:1058A30012593BA3E0F87401686005740668700739
:1058B300125355740280051253557403F0EA240AF7
:1058C30012623C1261A5E4F0EA2408F8E43F1232C4
:1058D3002B2431F582E43AF583E0C0E0126EDCA3B9
:1058E300A3D0E012595ACA242EF582E43AF583E094
:1058F300C0E0126EDCA3A3A3D0E0125E80C81259ED
:1059030035381240CE126EDC12594F8A0A8B0BAC1B
:105913000AAD0B850882850983125DE61219348569
:105923000882850983124D8A1221F2126237F0022E
:105933003241240BF582E4228A828B83A3A3A3A39F
:10594300A3A3A3A31266CEF583888222A3A3A3A352
:10595300124C2112236022125DC2FAA3E0220258E4
:1059630068C082C083901AAB7438F0A37421F0909E
:105973001AAD7444F0A37421F0901AAF744AF0A3E3
:105983007421F0901AB1743EF0A37421F0025C6BA1
:1059930074F412083BEA2408FEE43BFF8E82F5838D
:1059A30012533F12617BE0F50874035508F50912A1
:1059B3005DE1F8A3E08882F583E508F0A3A882A956
:1059C30083E5096009740265096003025A80740C57
:1059D3005508FC600A74086C600574046C702674C6
:1059E3000265097006E508A2E4401A8A828B83A344
:1059F300A3A3A3A3A3A3A3125B861268D43D125B44
:105A030021A308A983740C6C701C125B82242812D6
:105A13005B6E2428F582E43DF583A3126502F0E86A
:105A23002402F8500109740265097006E508A2E42E
:105A3300404B125B82242A125B6E242AF582E43DDA
:105A4300F583A3125B30125B8C126502125B8CA38D
:105A5300125B28E82404F8500109EC600F74086C09
:105A6300600A740C6C600574046C70111261B224CA
:105A730026F582E43C125B21A3A882A9838A828B48
:105A830083A3A3A3A3A3A3A3A3125B5054037014E0
:105A9300E508A2E1400E1261B2125B1B3CF583E004
:105AA30054806008125B36125B238019901A7FE0E2
:105AB300C0E0125B36D0E0125B6388828983125B9D
:105AC3006304125DC7A3A882A983E508A2E7504532
:105AD3008E828F83125B5088828983125B69125B8B
:105AE30055540360301261B22434F582E43C1265EC
:105AF30000F0E508A2E1501D8A828B83A3A3A3A330
:105B0300A3A3A3A31232302435F582E43A1265002D
:105B1300A3F0E82403023241241EF582E422F58334
:105B2300125B30F022125B30A3A3A3F022E0888241
:105B33008983228A828B83A3A3A3A3A3A3A3A3E022
